S01100005350495F534C4156452E737265634D
S11300000C942A000C9434000C9434000C943400A6
S11300100C9434000C9434000C9434000C9434008C
S11300200C9434000C9434000C9434000C9434007C
S11300300C9434000C9434000C9434000C9434006C
S11300400C9434000C9434000C9434000C9434005C
S11300500C94340011241FBECFE5D8E0DEBFCDBF21
S11300600E9436000C9498000C9400000E948D00AD
S1130070A29AA79A8B9AD29A80E00E949300813325
S113008071F4AA9AAF989398DA982FEF81EE94E0DE
S1130090215080409040E1F700C00000EDCF823352
S11300A071F4AA98AF9A9398DA982FEF81EE94E0BE
S11300B0215080409040E1F700C00000DDCF833341
S11300C071F4AA98AF98939ADA982FEF81EE94E09E
S11300D0215080409040E1F700C00000CDCF843330
S11300E071F4AA98AF989398DA9A2FEF81EE94E07E
S11300F0215080409040E1F700C00000BDCFAA9895
S1130100AF989398DA982FEF81EE94E021508040D5
S11301109040E1F700C00000AFCF6E9ABE9ABD9840
S1130120BF98BC9808958FB9779BFECF8FB108957F
S1070130F894FFCF6D
S9030000FC
