S0160000486F6D654175746F6D6174696F6E2E7372656364
S11300000C942A000C9434000C9434000C943400A6
S11300100C9434000C9434000C9434000C9434008C
S11300200C9434000C9434000C9434000C9434007C
S11300300C9434000C9434000C9434000C9434006C
S11300400C9434000C9434000C9434000C9434005C
S11300500C94340011241FBECFE5D8E0DEBFCDBF21
S11300600E9436000C9467000C9400000E945A0011
S11300700E944C000E9452000E946300A8980E94B3
S11300805500A89A2FEF81EE94E0215080409040D3
S1130090E1F700C00000F0CF87B3806A87BBBE9849
S11300A0A09A089581E58DB908958FB9779BFECF05
S11300B08FB1089587E689B98AB188618AB980B514
S11300C0866880BD08955F9BFECF8CB10895F89437
S10500D0FFCF5C
S9030000FC
